S0160000417267756D656E74656E546573742E7372656358
S11300000C945A000C9464000C9464000C946400E6
S11300100C9464000C9464000C9464000C946400CC
S11300200C9464000C9464000C9464000C946400BC
S11300300C9464000C9464000C9464000C946400AC
S11300400C9464000C9464000C9464000C9464009C
S11300500C9464000C9464000C9464000C9464008C
S11300600C9464000C9464000C9464000C9464007C
S11300700C9464000C9464000C9464000C9464006C
S11300800C9464000C9464000C9464000C9464005C
S11300900C9464000C9464000C9464000C9464004C
S11300A00C9464000C9464000C9464000C9464003C
S11300B00C94640011241FBECFEFD8E0DEBFCDBF87
S11300C00E9466000C9485000C940000CF93DF938B
S11300D000D01F92CDB7DEB71B8280E584B98FE0D4
S11300E084B98A8385B18A6085B9898393E08B81D9
S11300F08F5F8B838B818530D0F39B838B818F5F64
S11101008B838B81853098F3F8CFF894FFCF72
S9030000FC
